{
  "_format": "hh-sol-artifact-1",
  "contractName": "Spaceman",
  "sourceName": "contracts/Spaceman.sol",
  "abi": [
    {
      "inputs": [],
      "stateMutability": "nonpayable",
      "type": "constructor"
    },
    {
      "anonymous": false,
      "inputs": [
        {
          "indexed": true,
          "internalType": "address",
          "name": "owner",
          "type": "address"
        },
        {
          "indexed": true,
          "internalType": "address",
          "name": "approved",
          "type": "address"
        },
        {
          "indexed": true,
          "internalType": "uint256",
          "name": "tokenId",
          "type": "uint256"
        }
      ],
      "name": "Approval",
      "type": "event"
    },
    {
      "anonymous": false,
      "inputs": [
        {
          "indexed": true,
          "internalType": "address",
          "name": "owner",
          "type": "address"
        },
        {
          "indexed": true,
          "internalType": "address",
          "name": "operator",
          "type": "address"
        },
        {
          "indexed": false,
          "internalType": "bool",
          "name": "approved",
          "type": "bool"
        }
      ],
      "name": "ApprovalForAll",
      "type": "event"
    },
    {
      "anonymous": false,
      "inputs": [
        {
          "indexed": true,
          "internalType": "address",
          "name": "previousOwner",
          "type": "address"
        },
        {
          "indexed": true,
          "internalType": "address",
          "name": "newOwner",
          "type": "address"
        }
      ],
      "name": "OwnershipTransferred",
      "type": "event"
    },
    {
      "anonymous": false,
      "inputs": [
        {
          "indexed": true,
          "internalType": "address",
          "name": "from",
          "type": "address"
        },
        {
          "indexed": true,
          "internalType": "address",
          "name": "to",
          "type": "address"
        },
        {
          "indexed": true,
          "internalType": "uint256",
          "name": "tokenId",
          "type": "uint256"
        }
      ],
      "name": "Transfer",
      "type": "event"
    },
    {
      "inputs": [
        {
          "internalType": "address",
          "name": "to",
          "type": "address"
        },
        {
          "internalType": "uint256",
          "name": "tokenId",
          "type": "uint256"
        }
      ],
      "name": "approve",
      "outputs": [],
      "stateMutability": "nonpayable",
      "type": "function"
    },
    {
      "inputs": [
        {
          "internalType": "address",
          "name": "owner",
          "type": "address"
        }
      ],
      "name": "balanceOf",
      "outputs": [
        {
          "internalType": "uint256",
          "name": "",
          "type": "uint256"
        }
      ],
      "stateMutability": "view",
      "type": "function"
    },
    {
      "inputs": [],
      "name": "baseExtension",
      "outputs": [
        {
          "internalType": "string",
          "name": "",
          "type": "string"
        }
      ],
      "stateMutability": "view",
      "type": "function"
    },
    {
      "inputs": [],
      "name": "cost",
      "outputs": [
        {
          "internalType": "uint256",
          "name": "",
          "type": "uint256"
        }
      ],
      "stateMutability": "view",
      "type": "function"
    },
    {
      "inputs": [
        {
          "internalType": "uint256",
          "name": "tokenId",
          "type": "uint256"
        }
      ],
      "name": "getApproved",
      "outputs": [
        {
          "internalType": "address",
          "name": "",
          "type": "address"
        }
      ],
      "stateMutability": "view",
      "type": "function"
    },
    {
      "inputs": [
        {
          "internalType": "address",
          "name": "owner",
          "type": "address"
        },
        {
          "internalType": "address",
          "name": "operator",
          "type": "address"
        }
      ],
      "name": "isApprovedForAll",
      "outputs": [
        {
          "internalType": "bool",
          "name": "",
          "type": "bool"
        }
      ],
      "stateMutability": "view",
      "type": "function"
    },
    {
      "inputs": [],
      "name": "maxMintAmount",
      "outputs": [
        {
          "internalType": "uint256",
          "name": "",
          "type": "uint256"
        }
      ],
      "stateMutability": "view",
      "type": "function"
    },
    {
      "inputs": [],
      "name": "maxSupply",
      "outputs": [
        {
          "internalType": "uint256",
          "name": "",
          "type": "uint256"
        }
      ],
      "stateMutability": "view",
      "type": "function"
    },
    {
      "inputs": [
        {
          "internalType": "uint256",
          "name": "_mintAmount",
          "type": "uint256"
        }
      ],
      "name": "mint",
      "outputs": [],
      "stateMutability": "payable",
      "type": "function"
    },
    {
      "inputs": [],
      "name": "name",
      "outputs": [
        {
          "internalType": "string",
          "name": "",
          "type": "string"
        }
      ],
      "stateMutability": "view",
      "type": "function"
    },
    {
      "inputs": [],
      "name": "notRevealedUri",
      "outputs": [
        {
          "internalType": "string",
          "name": "",
          "type": "string"
        }
      ],
      "stateMutability": "view",
      "type": "function"
    },
    {
      "inputs": [],
      "name": "owner",
      "outputs": [
        {
          "internalType": "address",
          "name": "",
          "type": "address"
        }
      ],
      "stateMutability": "view",
      "type": "function"
    },
    {
      "inputs": [
        {
          "internalType": "uint256",
          "name": "tokenId",
          "type": "uint256"
        }
      ],
      "name": "ownerOf",
      "outputs": [
        {
          "internalType": "address",
          "name": "",
          "type": "address"
        }
      ],
      "stateMutability": "view",
      "type": "function"
    },
    {
      "inputs": [
        {
          "internalType": "bool",
          "name": "_state",
          "type": "bool"
        }
      ],
      "name": "pause",
      "outputs": [],
      "stateMutability": "nonpayable",
      "type": "function"
    },
    {
      "inputs": [],
      "name": "paused",
      "outputs": [
        {
          "internalType": "bool",
          "name": "",
          "type": "bool"
        }
      ],
      "stateMutability": "view",
      "type": "function"
    },
    {
      "inputs": [],
      "name": "renounceOwnership",
      "outputs": [],
      "stateMutability": "nonpayable",
      "type": "function"
    },
    {
      "inputs": [],
      "name": "reveal",
      "outputs": [],
      "stateMutability": "nonpayable",
      "type": "function"
    },
    {
      "inputs": [],
      "name": "revealed",
      "outputs": [
        {
          "internalType": "bool",
          "name": "",
          "type": "bool"
        }
      ],
      "stateMutability": "view",
      "type": "function"
    },
    {
      "inputs": [
        {
          "internalType": "address",
          "name": "from",
          "type": "address"
        },
        {
          "internalType": "address",
          "name": "to",
          "type": "address"
        },
        {
          "internalType": "uint256",
          "name": "tokenId",
          "type": "uint256"
        }
      ],
      "name": "safeTransferFrom",
      "outputs": [],
      "stateMutability": "nonpayable",
      "type": "function"
    },
    {
      "inputs": [
        {
          "internalType": "address",
          "name": "from",
          "type": "address"
        },
        {
          "internalType": "address",
          "name": "to",
          "type": "address"
        },
        {
          "internalType": "uint256",
          "name": "tokenId",
          "type": "uint256"
        },
        {
          "internalType": "bytes",
          "name": "_data",
          "type": "bytes"
        }
      ],
      "name": "safeTransferFrom",
      "outputs": [],
      "stateMutability": "nonpayable",
      "type": "function"
    },
    {
      "inputs": [
        {
          "internalType": "address",
          "name": "operator",
          "type": "address"
        },
        {
          "internalType": "bool",
          "name": "approved",
          "type": "bool"
        }
      ],
      "name": "setApprovalForAll",
      "outputs": [],
      "stateMutability": "nonpayable",
      "type": "function"
    },
    {
      "inputs": [
        {
          "internalType": "string",
          "name": "_newBaseExtension",
          "type": "string"
        }
      ],
      "name": "setBaseExtension",
      "outputs": [],
      "stateMutability": "nonpayable",
      "type": "function"
    },
    {
      "inputs": [
        {
          "internalType": "string",
          "name": "_newBaseURI",
          "type": "string"
        }
      ],
      "name": "setBaseURI",
      "outputs": [],
      "stateMutability": "nonpayable",
      "type": "function"
    },
    {
      "inputs": [
        {
          "internalType": "uint256",
          "name": "_newCost",
          "type": "uint256"
        }
      ],
      "name": "setCost",
      "outputs": [],
      "stateMutability": "nonpayable",
      "type": "function"
    },
    {
      "inputs": [
        {
          "internalType": "string",
          "name": "_notRevealedURI",
          "type": "string"
        }
      ],
      "name": "setNotRevealedURI",
      "outputs": [],
      "stateMutability": "nonpayable",
      "type": "function"
    },
    {
      "inputs": [
        {
          "internalType": "uint256",
          "name": "_newmaxMintAmount",
          "type": "uint256"
        }
      ],
      "name": "setmaxMintAmount",
      "outputs": [],
      "stateMutability": "nonpayable",
      "type": "function"
    },
    {
      "inputs": [
        {
          "internalType": "bytes4",
          "name": "interfaceId",
          "type": "bytes4"
        }
      ],
      "name": "supportsInterface",
      "outputs": [
        {
          "internalType": "bool",
          "name": "",
          "type": "bool"
        }
      ],
      "stateMutability": "view",
      "type": "function"
    },
    {
      "inputs": [],
      "name": "symbol",
      "outputs": [
        {
          "internalType": "string",
          "name": "",
          "type": "string"
        }
      ],
      "stateMutability": "view",
      "type": "function"
    },
    {
      "inputs": [
        {
          "internalType": "uint256",
          "name": "index",
          "type": "uint256"
        }
      ],
      "name": "tokenByIndex",
      "outputs": [
        {
          "internalType": "uint256",
          "name": "",
          "type": "uint256"
        }
      ],
      "stateMutability": "view",
      "type": "function"
    },
    {
      "inputs": [
        {
          "internalType": "address",
          "name": "owner",
          "type": "address"
        },
        {
          "internalType": "uint256",
          "name": "index",
          "type": "uint256"
        }
      ],
      "name": "tokenOfOwnerByIndex",
      "outputs": [
        {
          "internalType": "uint256",
          "name": "",
          "type": "uint256"
        }
      ],
      "stateMutability": "view",
      "type": "function"
    },
    {
      "inputs": [
        {
          "internalType": "uint256",
          "name": "tokenId",
          "type": "uint256"
        }
      ],
      "name": "tokenURI",
      "outputs": [
        {
          "internalType": "string",
          "name": "",
          "type": "string"
        }
      ],
      "stateMutability": "view",
      "type": "function"
    },
    {
      "inputs": [],
      "name": "totalSupply",
      "outputs": [
        {
          "internalType": "uint256",
          "name": "",
          "type": "uint256"
        }
      ],
      "stateMutability": "view",
      "type": "function"
    },
    {
      "inputs": [
        {
          "internalType": "address",
          "name": "from",
          "type": "address"
        },
        {
          "internalType": "address",
          "name": "to",
          "type": "address"
        },
        {
          "internalType": "uint256",
          "name": "tokenId",
          "type": "uint256"
        }
      ],
      "name": "transferFrom",
      "outputs": [],
      "stateMutability": "nonpayable",
      "type": "function"
    },
    {
      "inputs": [
        {
          "internalType": "address",
          "name": "newOwner",
          "type": "address"
        }
      ],
      "name": "transferOwnership",
      "outputs": [],
      "stateMutability": "nonpayable",
      "type": "function"
    },
    {
      "inputs": [
        {
          "internalType": "address",
          "name": "_owner",
          "type": "address"
        }
      ],
      "name": "walletOfOwner",
      "outputs": [
        {
          "internalType": "uint256[]",
          "name": "",
          "type": "uint256[]"
        }
      ],
      "stateMutability": "view",
      "type": "function"
    },
    {
      "inputs": [],
      "name": "withdraw",
      "outputs": [],
      "stateMutability": "payable",
      "type": "function"
    }
  ],
  "bytecode": "0x60806040526040518060400160405280600581526020017f2e6a736f6e000000000000000000000000000000000000000000000000000000815250600c90805190602001906200005192919062000414565b50662386f26fc10000600d5561012c600e556003600f556000601060006101000a81548160ff0219169083151502179055506001601060016101000a81548160ff021916908315150217905550348015620000ab57600080fd5b506040518060400160405280600881526020017f53706163656d616e0000000000000000000000000000000000000000000000008152506040518060400160405280600581526020017f535041434500000000000000000000000000000000000000000000000000000081525081600090805190602001906200013092919062000414565b5080600190805190602001906200014992919062000414565b5050506200016c62000160620001c660201b60201c565b620001ce60201b60201c565b62000196604051806080016040528060438152602001620049d5604391396200029460201b60201c565b620001c0604051806080016040528060438152602001620049d5604391396200033f60201b60201c565b620005ac565b600033905090565b6000600a60009054906101000a900473ffffffffffffffffffffffffffffffffffffffff16905081600a60006101000a81548173ffffffffffffffffffffffffffffffffffffffff021916908373ffffffffffffffffffffffffffffffffffffffff1602179055508173ffffffffffffffffffffffffffffffffffffffff168173ffffffffffffffffffffffffffffffffffffffff167f8be0079c531659141344cd1fd0a4f28419497f9722a3daafe3b4186f6b6457e060405160405180910390a35050565b620002a4620001c660201b60201c565b73ffffffffffffffffffffffffffffffffffffffff16620002ca620003ea60201b60201c565b73ffffffffffffffffffffffffffffffffffffffff161462000323576040517f08c379a00000000000000000000000000000000000000000000000000000000081526004016200031a9062000525565b60405180910390fd5b80600b90805190602001906200033b92919062000414565b5050565b6200034f620001c660201b60201c565b73ffffffffffffffffffffffffffffffffffffffff1662000375620003ea60201b60201c565b73ffffffffffffffffffffffffffffffffffffffff1614620003ce576040517f08c379a0000000000000000000000000000000000000000000000000000000008152600401620003c59062000525565b60405180910390fd5b8060119080519060200190620003e692919062000414565b5050565b6000600a60009054906101000a900473ffffffffffffffffffffffffffffffffffffffff16905090565b828054620004229062000576565b90600052602060002090601f01602090048101928262000446576000855562000492565b82601f106200046157805160ff191683800117855562000492565b8280016001018555821562000492579182015b828111156200049157825182559160200191906001019062000474565b5b509050620004a19190620004a5565b5090565b5b80821115620004c0576000816000905550600101620004a6565b5090565b600082825260208201905092915050565b7f4f776e61626c653a2063616c6c6572206973206e6f7420746865206f776e6572600082015250565b60006200050d602083620004c4565b91506200051a82620004d5565b602082019050919050565b600060208201905081810360008301526200054081620004fe565b9050919050565b7f4e487b7100000000000000000000000000000000000000000000000000000000600052602260045260246000fd5b600060028204905060018216806200058f57607f821691505b60208210811415620005a657620005a562000547565b5b50919050565b61441980620005bc6000396000f3fe60806040526004361061020f5760003560e01c80635c975abb11610118578063a475b5dd116100a0578063d5abeb011161006f578063d5abeb011461076f578063da3ef23f1461079a578063e985e9c5146107c3578063f2c4ce1e14610800578063f2fde38b146108295761020f565b8063a475b5dd146106c7578063b88d4fde146106de578063c668286214610707578063c87b56dd146107325761020f565b80637f00c7a6116100e75780637f00c7a6146106035780638da5cb5b1461062c57806395d89b4114610657578063a0712d6814610682578063a22cb4651461069e5761020f565b80635c975abb146105475780636352211e1461057257806370a08231146105af578063715018a6146105ec5761020f565b806323b872dd1161019b578063438b63001161016a578063438b63001461045057806344a0d68a1461048d5780634f6ccce7146104b657806351830227146104f357806355f804b31461051e5761020f565b806323b872dd146103b75780632f745c59146103e05780633ccfd60b1461041d57806342842e0e146104275761020f565b8063081c8c44116101e2578063081c8c44146102e2578063095ea7b31461030d57806313faede61461033657806318160ddd14610361578063239c70ae1461038c5761020f565b806301ffc9a71461021457806302329a291461025157806306fdde031461027a578063081812fc146102a5575b600080fd5b34801561022057600080fd5b5061023b60048036038101906102369190612e13565b610852565b6040516102489190612e5b565b60405180910390f35b34801561025d57600080fd5b5061027860048036038101906102739190612ea2565b6108cc565b005b34801561028657600080fd5b5061028f610965565b60405161029c9190612f68565b60405180910390f35b3480156102b157600080fd5b506102cc60048036038101906102c79190612fc0565b6109f7565b6040516102d9919061302e565b60405180910390f35b3480156102ee57600080fd5b506102f7610a7c565b6040516103049190612f68565b60405180910390f35b34801561031957600080fd5b50610334600480360381019061032f9190613075565b610b0a565b005b34801561034257600080fd5b5061034b610c22565b60405161035891906130c4565b60405180910390f35b34801561036d57600080fd5b50610376610c28565b60405161038391906130c4565b60405180910390f35b34801561039857600080fd5b506103a1610c35565b6040516103ae91906130c4565b60405180910390f35b3480156103c357600080fd5b506103de60048036038101906103d991906130df565b610c3b565b005b3480156103ec57600080fd5b5061040760048036038101906104029190613075565b610c9b565b60405161041491906130c4565b60405180910390f35b610425610d40565b005b34801561043357600080fd5b5061044e600480360381019061044991906130df565b610e3c565b005b34801561045c57600080fd5b5061047760048036038101906104729190613132565b610e5c565b604051610484919061321d565b60405180910390f35b34801561049957600080fd5b506104b460048036038101906104af9190612fc0565b610f0a565b005b3480156104c257600080fd5b506104dd60048036038101906104d89190612fc0565b610f90565b6040516104ea91906130c4565b60405180910390f35b3480156104ff57600080fd5b50610508611001565b6040516105159190612e5b565b60405180910390f35b34801561052a57600080fd5b5061054560048036038101906105409190613374565b611014565b005b34801561055357600080fd5b5061055c6110aa565b6040516105699190612e5b565b60405180910390f35b34801561057e57600080fd5b5061059960048036038101906105949190612fc0565b6110bd565b6040516105a6919061302e565b60405180910390f35b3480156105bb57600080fd5b506105d660048036038101906105d19190613132565b61116f565b6040516105e391906130c4565b60405180910390f35b3480156105f857600080fd5b50610601611227565b005b34801561060f57600080fd5b5061062a60048036038101906106259190612fc0565b6112af565b005b34801561063857600080fd5b50610641611335565b60405161064e919061302e565b60405180910390f35b34801561066357600080fd5b5061066c61135f565b6040516106799190612f68565b60405180910390f35b61069c60048036038101906106979190612fc0565b6113f1565b005b3480156106aa57600080fd5b506106c560048036038101906106c091906133bd565b6114dd565b005b3480156106d357600080fd5b506106dc6114f3565b005b3480156106ea57600080fd5b506107056004803603810190610700919061349e565b61158c565b005b34801561071357600080fd5b5061071c6115ee565b6040516107299190612f68565b60405180910390f35b34801561073e57600080fd5b5061075960048036038101906107549190612fc0565b61167c565b6040516107669190612f68565b60405180910390f35b34801561077b57600080fd5b506107846117d5565b60405161079191906130c4565b60405180910390f35b3480156107a657600080fd5b506107c160048036038101906107bc9190613374565b6117db565b005b3480156107cf57600080fd5b506107ea60048036038101906107e59190613521565b611871565b6040516107f79190612e5b565b60405180910390f35b34801561080c57600080fd5b5061082760048036038101906108229190613374565b611905565b005b34801561083557600080fd5b50610850600480360381019061084b9190613132565b61199b565b005b60007f780e9d63000000000000000000000000000000000000000000000000000000007bffffffffffffffffffffffffffffffffffffffffffffffffffffffff1916827bffffffffffffffffffffffffffffffffffffffffffffffffffffffff191614806108c557506108c482611a93565b5b9050919050565b6108d4611b75565b73ffffffffffffffffffffffffffffffffffffffff166108f2611335565b73ffffffffffffffffffffffffffffffffffffffff1614610948576040517f08c379a000000000000000000000000000000000000000000000000000000000815260040161093f906135ad565b60405180910390fd5b80601060006101000a81548160ff02191690831515021790555050565b606060008054610974906135fc565b80601f01602080910402602001604051908101604052809291908181526020018280546109a0906135fc565b80156109ed5780601f106109c2576101008083540402835291602001916109ed565b820191906000526020600020905b8154815290600101906020018083116109d057829003601f168201915b5050505050905090565b6000610a0282611b7d565b610a41576040517f08c379a0000000000000000000000000000000000000000000000000000000008152600401610a38906136a0565b60405180910390fd5b6004600083815260200190815260200160002060009054906101000a900473ffffffffffffffffffffffffffffffffffffffff169050919050565b60118054610a89906135fc565b80601f0160208091040260200160405190810160405280929190818152602001828054610ab5906135fc565b8015610b025780601f10610ad757610100808354040283529160200191610b02565b820191906000526020600020905b815481529060010190602001808311610ae557829003601f168201915b505050505081565b6000610b15826110bd565b90508073ffffffffffffffffffffffffffffffffffffffff168373ffffffffffffffffffffffffffffffffffffffff161415610b86576040517f08c379a0000000000000000000000000000000000000000000000000000000008152600401610b7d90613732565b60405180910390fd5b8073ffffffffffffffffffffffffffffffffffffffff16610ba5611b75565b73ffffffffffffffffffffffffffffffffffffffff161480610bd45750610bd381610bce611b75565b611871565b5b610c13576040517f08c379a0000000000000000000000000000000000000000000000000000000008152600401610c0a906137c4565b60405180910390fd5b610c1d8383611be9565b505050565b600d5481565b6000600880549050905090565b600f5481565b610c4c610c46611b75565b82611ca2565b610c8b576040517f08c379a0000000000000000000000000000000000000000000000000000000008152600401610c8290613856565b60405180910390fd5b610c96838383611d80565b505050565b6000610ca68361116f565b8210610ce7576040517f08c379a0000000000000000000000000000000000000000000000000000000008152600401610cde906138e8565b60405180910390fd5b600660008473ffffffffffffffffffffffffffffffffffffffff1673ffffffffffffffffffffffffffffffffffffffff168152602001908152602001600020600083815260200190815260200160002054905092915050565b610d48611b75565b73ffffffffffffffffffffffffffffffffffffffff16610d66611335565b73ffffffffffffffffffffffffffffffffffffffff1614610dbc576040517f08c379a0000000000000000000000000000000000000000000000000000000008152600401610db3906135ad565b60405180910390fd5b6000610dc6611335565b73ffffffffffffffffffffffffffffffffffffffff1647604051610de990613939565b60006040518083038185875af1925050503d8060008114610e26576040519150601f19603f3d011682016040523d82523d6000602084013e610e2b565b606091505b5050905080610e3957600080fd5b50565b610e578383836040518060200160405280600081525061158c565b505050565b60606000610e698361116f565b905060008167ffffffffffffffff811115610e8757610e86613249565b5b604051908082528060200260200182016040528015610eb55781602001602082028036833780820191505090505b50905060005b82811015610eff57610ecd8582610c9b565b828281518110610ee057610edf61394e565b5b6020026020010181815250508080610ef7906139ac565b915050610ebb565b508092505050919050565b610f12611b75565b73ffffffffffffffffffffffffffffffffffffffff16610f30611335565b73ffffffffffffffffffffffffffffffffffffffff1614610f86576040517f08c379a0000000000000000000000000000000000000000000000000000000008152600401610f7d906135ad565b60405180910390fd5b80600d8190555050565b6000610f9a610c28565b8210610fdb576040517f08c379a0000000000000000000000000000000000000000000000000000000008152600401610fd290613a67565b60405180910390fd5b60088281548110610fef57610fee61394e565b5b90600052602060002001549050919050565b601060019054906101000a900460ff1681565b61101c611b75565b73ffffffffffffffffffffffffffffffffffffffff1661103a611335565b73ffffffffffffffffffffffffffffffffffffffff1614611090576040517f08c379a0000000000000000000000000000000000000000000000000000000008152600401611087906135ad565b60405180910390fd5b80600b90805190602001906110a6929190612d04565b5050565b601060009054906101000a900460ff1681565b6000806002600084815260200190815260200160002060009054906101000a900473ffffffffffffffffffffffffffffffffffffffff169050600073ffffffffffffffffffffffffffffffffffffffff168173ffffffffffffffffffffffffffffffffffffffff161415611166576040517f08c379a000000000000000000000000000000000000000000000000000000000815260040161115d90613af9565b60405180910390fd5b80915050919050565b60008073ffffffffffffffffffffffffffffffffffffffff168273ffffffffffffffffffffffffffffffffffffffff1614156111e0576040517f08c379a00000000000000000000000000000000000000000000000000000000081526004016111d790613b8b565b60405180910390fd5b600360008373ffffffffffffffffffffffffffffffffffffffff1673ffffffffffffffffffffffffffffffffffffffff168152602001908152602001600020549050919050565b61122f611b75565b73ffffffffffffffffffffffffffffffffffffffff1661124d611335565b73ffffffffffffffffffffffffffffffffffffffff16146112a3576040517f08c379a000000000000000000000000000000000000000000000000000000000815260040161129a906135ad565b60405180910390fd5b6112ad6000611fe7565b565b6112b7611b75565b73ffffffffffffffffffffffffffffffffffffffff166112d5611335565b73ffffffffffffffffffffffffffffffffffffffff161461132b576040517f08c379a0000000000000000000000000000000000000000000000000000000008152600401611322906135ad565b60405180910390fd5b80600f8190555050565b6000600a60009054906101000a900473ffffffffffffffffffffffffffffffffffffffff16905090565b60606001805461136e906135fc565b80601f016020809104026020016040519081016040528092919081815260200182805461139a906135fc565b80156113e75780601f106113bc576101008083540402835291602001916113e7565b820191906000526020600020905b8154815290600101906020018083116113ca57829003601f168201915b5050505050905090565b60006113fb610c28565b9050601060009054906101000a900460ff161561141757600080fd5b6000821161142457600080fd5b600f5482111561143357600080fd5b600e5482826114429190613bab565b111561144d57600080fd5b611455611335565b73ffffffffffffffffffffffffffffffffffffffff163373ffffffffffffffffffffffffffffffffffffffff16146114a25781600d546114959190613c01565b3410156114a157600080fd5b5b6000600190505b8281116114d8576114c53382846114c09190613bab565b6120ad565b80806114d0906139ac565b9150506114a9565b505050565b6114ef6114e8611b75565b83836120cb565b5050565b6114fb611b75565b73ffffffffffffffffffffffffffffffffffffffff16611519611335565b73ffffffffffffffffffffffffffffffffffffffff161461156f576040517f08c379a0000000000000000000000000000000000000000000000000000000008152600401611566906135ad565b60405180910390fd5b6001601060016101000a81548160ff021916908315150217905550565b61159d611597611b75565b83611ca2565b6115dc576040517f08c379a00000000000000000000000000000000000000000000000000000000081526004016115d390613856565b60405180910390fd5b6115e884848484612238565b50505050565b600c80546115fb906135fc565b80601f0160208091040260200160405190810160405280929190818152602001828054611627906135fc565b80156116745780601f1061164957610100808354040283529160200191611674565b820191906000526020600020905b81548152906001019060200180831161165757829003601f168201915b505050505081565b606061168782611b7d565b6116c6576040517f08c379a00000000000000000000000000000000000000000000000000000000081526004016116bd90613ccd565b60405180910390fd5b60001515601060019054906101000a900460ff161515141561177457601180546116ef906135fc565b80601f016020809104026020016040519081016040528092919081815260200182805461171b906135fc565b80156117685780601f1061173d57610100808354040283529160200191611768565b820191906000526020600020905b81548152906001019060200180831161174b57829003601f168201915b505050505090506117d0565b600061177e612294565b9050600081511161179e57604051806020016040528060008152506117cc565b806117a884612326565b600c6040516020016117bc93929190613dbd565b6040516020818303038152906040525b9150505b919050565b600e5481565b6117e3611b75565b73ffffffffffffffffffffffffffffffffffffffff16611801611335565b73ffffffffffffffffffffffffffffffffffffffff1614611857576040517f08c379a000000000000000000000000000000000000000000000000000000000815260040161184e906135ad565b60405180910390fd5b80600c908051906020019061186d929190612d04565b5050565b6000600560008473ffffffffffffffffffffffffffffffffffffffff1673ffffffffffffffffffffffffffffffffffffffff16815260200190815260200160002060008373ffffffffffffffffffffffffffffffffffffffff1673ffffffffffffffffffffffffffffffffffffffff16815260200190815260200160002060009054906101000a900460ff16905092915050565b61190d611b75565b73ffffffffffffffffffffffffffffffffffffffff1661192b611335565b73ffffffffffffffffffffffffffffffffffffffff1614611981576040517f08c379a0000000000000000000000000000000000000000000000000000000008152600401611978906135ad565b60405180910390fd5b8060119080519060200190611997929190612d04565b5050565b6119a3611b75565b73ffffffffffffffffffffffffffffffffffffffff166119c1611335565b73ffffffffffffffffffffffffffffffffffffffff1614611a17576040517f08c379a0000000000000000000000000000000000000000000000000000000008152600401611a0e906135ad565b60405180910390fd5b600073ffffffffffffffffffffffffffffffffffffffff168173ffffffffffffffffffffffffffffffffffffffff161415611a87576040517f08c379a0000000000000000000000000000000000000000000000000000000008152600401611a7e90613e60565b60405180910390fd5b611a9081611fe7565b50565b60007f80ac58cd000000000000000000000000000000000000000000000000000000007bffffffffffffffffffffffffffffffffffffffffffffffffffffffff1916827bffffffffffffffffffffffffffffffffffffffffffffffffffffffff19161480611b5e57507f5b5e139f000000000000000000000000000000000000000000000000000000007bffffffffffffffffffffffffffffffffffffffffffffffffffffffff1916827bffffffffffffffffffffffffffffffffffffffffffffffffffffffff1916145b80611b6e5750611b6d82612487565b5b9050919050565b600033905090565b60008073ffffffffffffffffffffffffffffffffffffffff166002600084815260200190815260200160002060009054906101000a900473ffffffffffffffffffffffffffffffffffffffff1673ffffffffffffffffffffffffffffffffffffffff1614159050919050565b816004600083815260200190815260200160002060006101000a81548173ffffffffffffffffffffffffffffffffffffffff021916908373ffffffffffffffffffffffffffffffffffffffff160217905550808273ffffffffffffffffffffffffffffffffffffffff16611c5c836110bd565b73ffffffffffffffffffffffffffffffffffffffff167f8c5be1e5ebec7d5bd14f71427d1e84f3dd0314c0f7b2291e5b200ac8c7c3b92560405160405180910390a45050565b6000611cad82611b7d565b611cec576040517f08c379a0000000000000000000000000000000000000000000000000000000008152600401611ce390613ef2565b60405180910390fd5b6000611cf7836110bd565b90508073ffffffffffffffffffffffffffffffffffffffff168473ffffffffffffffffffffffffffffffffffffffff161480611d395750611d388185611871565b5b80611d7757508373ffffffffffffffffffffffffffffffffffffffff16611d5f846109f7565b73ffffffffffffffffffffffffffffffffffffffff16145b91505092915050565b8273ffffffffffffffffffffffffffffffffffffffff16611da0826110bd565b73ffffffffffffffffffffffffffffffffffffffff1614611df6576040517f08c379a0000000000000000000000000000000000000000000000000000000008152600401611ded90613f84565b60405180910390fd5b600073ffffffffffffffffffffffffffffffffffffffff168273ffffffffffffffffffffffffffffffffffffffff161415611e66576040517f08c379a0000000000000000000000000000000000000000000000000000000008152600401611e5d90614016565b60405180910390fd5b611e718383836124f1565b611e7c600082611be9565b6001600360008573ffffffffffffffffffffffffffffffffffffffff1673ffffffffffffffffffffffffffffffffffffffff1681526020019081526020016000206000828254611ecc9190614036565b925050819055506001600360008473ffffffffffffffffffffffffffffffffffffffff1673ffffffffffffffffffffffffffffffffffffffff1681526020019081526020016000206000828254611f239190613bab565b92505081905550816002600083815260200190815260200160002060006101000a81548173ffffffffffffffffffffffffffffffffffffffff021916908373ffffffffffffffffffffffffffffffffffffffff160217905550808273ffffffffffffffffffffffffffffffffffffffff168473ffffffffffffffffffffffffffffffffffffffff167fddf252ad1be2c89b69c2b068fc378daa952ba7f163c4a11628f55a4df523b3ef60405160405180910390a4611fe2838383612605565b505050565b6000600a60009054906101000a900473ffffffffffffffffffffffffffffffffffffffff16905081600a60006101000a81548173ffffffffffffffffffffffffffffffffffffffff021916908373ffffffffffffffffffffffffffffffffffffffff1602179055508173ffffffffffffffffffffffffffffffffffffffff168173ffffffffffffffffffffffffffffffffffffffff167f8be0079c531659141344cd1fd0a4f28419497f9722a3daafe3b4186f6b6457e060405160405180910390a35050565b6120c782826040518060200160405280600081525061260a565b5050565b8173ffffffffffffffffffffffffffffffffffffffff168373ffffffffffffffffffffffffffffffffffffffff16141561213a576040517f08c379a0000000000000000000000000000000000000000000000000000000008152600401612131906140b6565b60405180910390fd5b80600560008573ffffffffffffffffffffffffffffffffffffffff1673ffffffffffffffffffffffffffffffffffffffff16815260200190815260200160002060008473ffffffffffffffffffffffffffffffffffffffff1673ffffffffffffffffffffffffffffffffffffffff16815260200190815260200160002060006101000a81548160ff0219169083151502179055508173ffffffffffffffffffffffffffffffffffffffff168373ffffffffffffffffffffffffffffffffffffffff167f17307eab39ab6107e8899845ad3d59bd9653f200f220920489ca2b5937696c318360405161222b9190612e5b565b60405180910390a3505050565b612243848484611d80565b61224f84848484612665565b61228e576040517f08c379a000000000000000000000000000000000000000000000000000000000815260040161228590614148565b60405180910390fd5b50505050565b6060600b80546122a3906135fc565b80601f01602080910402602001604051908101604052809291908181526020018280546122cf906135fc565b801561231c5780601f106122f15761010080835404028352916020019161231c565b820191906000526020600020905b8154815290600101906020018083116122ff57829003601f168201915b5050505050905090565b6060600082141561236e576040518060400160405280600181526020017f30000000000000000000000000000000000000000000000000000000000000008152509050612482565b600082905060005b600082146123a0578080612389906139ac565b915050600a826123999190614197565b9150612376565b60008167ffffffffffffffff8111156123bc576123bb613249565b5b6040519080825280601f01601f1916602001820160405280156123ee5781602001600182028036833780820191505090505b5090505b6000851461247b576001826124079190614036565b9150600a8561241691906141c8565b60306124229190613bab565b60f81b8183815181106124385761243761394e565b5b60200101907effffffffffffffffffffffffffffffffffffffffffffffffffffffffffffff1916908160001a905350600a856124749190614197565b94506123f2565b8093505050505b919050565b60007f01ffc9a7000000000000000000000000000000000000000000000000000000007bffffffffffffffffffffffffffffffffffffffffffffffffffffffff1916827bffffffffffffffffffffffffffffffffffffffffffffffffffffffff1916149050919050565b6124fc8383836127fc565b600073ffffffffffffffffffffffffffffffffffffffff168373ffffffffffffffffffffffffffffffffffffffff16141561253f5761253a81612801565b61257e565b8173ffffffffffffffffffffffffffffffffffffffff168373ffffffffffffffffffffffffffffffffffffffff161461257d5761257c838261284a565b5b5b600073ffffffffffffffffffffffffffffffffffffffff168273ffffffffffffffffffffffffffffffffffffffff1614156125c1576125bc816129b7565b612600565b8273ffffffffffffffffffffffffffffffffffffffff168273ffffffffffffffffffffffffffffffffffffffff16146125ff576125fe8282612a88565b5b5b505050565b505050565b6126148383612b07565b6126216000848484612665565b612660576040517f08c379a000000000000000000000000000000000000000000000000000000000815260040161265790614148565b60405180910390fd5b505050565b60006126868473ffffffffffffffffffffffffffffffffffffffff16612ce1565b156127ef578373ffffffffffffffffffffffffffffffffffffffff1663150b7a026126af611b75565b8786866040518563ffffffff1660e01b81526004016126d1949392919061424e565b602060405180830381600087803b1580156126eb57600080fd5b505af192505050801561271c57506040513d601f19601f8201168201806040525081019061271991906142af565b60015b61279f573d806000811461274c576040519150601f19603f3d011682016040523d82523d6000602084013e612751565b606091505b50600081511415612797576040517f08c379a000000000000000000000000000000000000000000000000000000000815260040161278e90614148565b60405180910390fd5b805181602001fd5b63150b7a0260e01b7bffffffffffffffffffffffffffffffffffffffffffffffffffffffff1916817bffffffffffffffffffffffffffffffffffffffffffffffffffffffff1916149150506127f4565b600190505b949350505050565b505050565b6008805490506009600083815260200190815260200160002081905550600881908060018154018082558091505060019003906000526020600020016000909190919091505550565b600060016128578461116f565b6128619190614036565b9050600060076000848152602001908152602001600020549050818114612946576000600660008673ffffffffffffffffffffffffffffffffffffffff1673ffffffffffffffffffffffffffffffffffffffff168152602001908152602001600020600084815260200190815260200160002054905080600660008773ffffffffffffffffffffffffffffffffffffffff1673ffffffffffffffffffffffffffffffffffffffff168152602001908152602001600020600084815260200190815260200160002081905550816007600083815260200190815260200160002081905550505b6007600084815260200190815260200160002060009055600660008573ffffffffffffffffffffffffffffffffffffffff1673ffffffffffffffffffffffffffffffffffffffff16815260200190815260200160002060008381526020019081526020016000206000905550505050565b600060016008805490506129cb9190614036565b90506000600960008481526020019081526020016000205490506000600883815481106129fb576129fa61394e565b5b906000526020600020015490508060088381548110612a1d57612a1c61394e565b5b906000526020600020018190555081600960008381526020019081526020016000208190555060096000858152602001908152602001600020600090556008805480612a6c57612a6b6142dc565b5b6001900381819060005260206000200160009055905550505050565b6000612a938361116f565b905081600660008573ffffffffffffffffffffffffffffffffffffffff1673ffffffffffffffffffffffffffffffffffffffff168152602001908152602001600020600083815260200190815260200160002081905550806007600084815260200190815260200160002081905550505050565b600073ffffffffffffffffffffffffffffffffffffffff168273ffffffffffffffffffffffffffffffffffffffff161415612b77576040517f08c379a0000000000000000000000000000000000000000000000000000000008152600401612b6e90614357565b60405180910390fd5b612b8081611b7d565b15612bc0576040517f08c379a0000000000000000000000000000000000000000000000000000000008152600401612bb7906143c3565b60405180910390fd5b612bcc600083836124f1565b6001600360008473ffffffffffffffffffffffffffffffffffffffff1673ffffffffffffffffffffffffffffffffffffffff1681526020019081526020016000206000828254612c1c9190613bab565b92505081905550816002600083815260200190815260200160002060006101000a81548173ffffffffffffffffffffffffffffffffffffffff021916908373ffffffffffffffffffffffffffffffffffffffff160217905550808273ffffffffffffffffffffffffffffffffffffffff16600073ffffffffffffffffffffffffffffffffffffffff167fddf252ad1be2c89b69c2b068fc378daa952ba7f163c4a11628f55a4df523b3ef60405160405180910390a4612cdd60008383612605565b5050565b6000808273ffffffffffffffffffffffffffffffffffffffff163b119050919050565b828054612d10906135fc565b90600052602060002090601f016020900481019282612d325760008555612d79565b82601f10612d4b57805160ff1916838001178555612d79565b82800160010185558215612d79579182015b82811115612d78578251825591602001919060010190612d5d565b5b509050612d869190612d8a565b5090565b5b80821115612da3576000816000905550600101612d8b565b5090565b6000604051905090565b600080fd5b600080fd5b60007fffffffff0000000000000000000000000000000000000000000000000000000082169050919050565b612df081612dbb565b8114612dfb57600080fd5b50565b600081359050612e0d81612de7565b92915050565b600060208284031215612e2957612e28612db1565b5b6000612e3784828501612dfe565b91505092915050565b60008115159050919050565b612e5581612e40565b82525050565b6000602082019050612e706000830184612e4c565b92915050565b612e7f81612e40565b8114612e8a57600080fd5b50565b600081359050612e9c81612e76565b92915050565b600060208284031215612eb857612eb7612db1565b5b6000612ec684828501612e8d565b91505092915050565b600081519050919050565b600082825260208201905092915050565b60005b83811015612f09578082015181840152602081019050612eee565b83811115612f18576000848401525b50505050565b6000601f19601f8301169050919050565b6000612f3a82612ecf565b612f448185612eda565b9350612f54818560208601612eeb565b612f5d81612f1e565b840191505092915050565b60006020820190508181036000830152612f828184612f2f565b905092915050565b6000819050919050565b612f9d81612f8a565b8114612fa857600080fd5b50565b600081359050612fba81612f94565b92915050565b600060208284031215612fd657612fd5612db1565b5b6000612fe484828501612fab565b91505092915050565b600073ffffffffffffffffffffffffffffffffffffffff82169050919050565b600061301882612fed565b9050919050565b6130288161300d565b82525050565b6000602082019050613043600083018461301f565b92915050565b6130528161300d565b811461305d57600080fd5b50565b60008135905061306f81613049565b92915050565b6000806040838503121561308c5761308b612db1565b5b600061309a85828601613060565b92505060206130ab85828601612fab565b9150509250929050565b6130be81612f8a565b82525050565b60006020820190506130d960008301846130b5565b92915050565b6000806000606084860312156130f8576130f7612db1565b5b600061310686828701613060565b935050602061311786828701613060565b925050604061312886828701612fab565b9150509250925092565b60006020828403121561314857613147612db1565b5b600061315684828501613060565b91505092915050565b600081519050919050565b600082825260208201905092915050565b6000819050602082019050919050565b61319481612f8a565b82525050565b60006131a6838361318b565b60208301905092915050565b6000602082019050919050565b60006131ca8261315f565b6131d4818561316a565b93506131df8361317b565b8060005b838110156132105781516131f7888261319a565b9750613202836131b2565b9250506001810190506131e3565b5085935050505092915050565b6000602082019050818103600083015261323781846131bf565b905092915050565b600080fd5b600080fd5b7f4e487b7100000000000000000000000000000000000000000000000000000000600052604160045260246000fd5b61328182612f1e565b810181811067ffffffffffffffff821117156132a05761329f613249565b5b80604052505050565b60006132b3612da7565b90506132bf8282613278565b919050565b600067ffffffffffffffff8211156132df576132de613249565b5b6132e882612f1e565b9050602081019050919050565b82818337600083830152505050565b6000613317613312846132c4565b6132a9565b90508281526020810184848401111561333357613332613244565b5b61333e8482856132f5565b509392505050565b600082601f83011261335b5761335a61323f565b5b813561336b848260208601613304565b91505092915050565b60006020828403121561338a57613389612db1565b5b600082013567ffffffffffffffff8111156133a8576133a7612db6565b5b6133b484828501613346565b91505092915050565b600080604083850312156133d4576133d3612db1565b5b60006133e285828601613060565b92505060206133f385828601612e8d565b9150509250929050565b600067ffffffffffffffff82111561341857613417613249565b5b61342182612f1e565b9050602081019050919050565b600061344161343c846133fd565b6132a9565b90508281526020810184848401111561345d5761345c613244565b5b6134688482856132f5565b509392505050565b600082601f8301126134855761348461323f565b5b813561349584826020860161342e565b91505092915050565b600080600080608085870312156134b8576134b7612db1565b5b60006134c687828801613060565b94505060206134d787828801613060565b93505060406134e887828801612fab565b925050606085013567ffffffffffffffff81111561350957613508612db6565b5b61351587828801613470565b91505092959194509250565b6000806040838503121561353857613537612db1565b5b600061354685828601613060565b925050602061355785828601613060565b9150509250929050565b7f4f776e61626c653a2063616c6c6572206973206e6f7420746865206f776e6572600082015250565b6000613597602083612eda565b91506135a282613561565b602082019050919050565b600060208201905081810360008301526135c68161358a565b9050919050565b7f4e487b7100000000000000000000000000000000000000000000000000000000600052602260045260246000fd5b6000600282049050600182168061361457607f821691505b60208210811415613628576136276135cd565b5b50919050565b7f4552433732313a20617070726f76656420717565727920666f72206e6f6e657860008201527f697374656e7420746f6b656e0000000000000000000000000000000000000000602082015250565b600061368a602c83612eda565b91506136958261362e565b604082019050919050565b600060208201905081810360008301526136b98161367d565b9050919050565b7f4552433732313a20617070726f76616c20746f2063757272656e74206f776e6560008201527f7200000000000000000000000000000000000000000000000000000000000000602082015250565b600061371c602183612eda565b9150613727826136c0565b604082019050919050565b6000602082019050818103600083015261374b8161370f565b9050919050565b7f4552433732313a20617070726f76652063616c6c6572206973206e6f74206f7760008201527f6e6572206e6f7220617070726f76656420666f7220616c6c0000000000000000602082015250565b60006137ae603883612eda565b91506137b982613752565b604082019050919050565b600060208201905081810360008301526137dd816137a1565b9050919050565b7f4552433732313a207472616e736665722063616c6c6572206973206e6f74206f60008201527f776e6572206e6f7220617070726f766564000000000000000000000000000000602082015250565b6000613840603183612eda565b915061384b826137e4565b604082019050919050565b6000602082019050818103600083015261386f81613833565b9050919050565b7f455243373231456e756d657261626c653a206f776e657220696e646578206f7560008201527f74206f6620626f756e6473000000000000000000000000000000000000000000602082015250565b60006138d2602b83612eda565b91506138dd82613876565b604082019050919050565b60006020820190508181036000830152613901816138c5565b9050919050565b600081905092915050565b50565b6000613923600083613908565b915061392e82613913565b600082019050919050565b600061394482613916565b9150819050919050565b7f4e487b7100000000000000000000000000000000000000000000000000000000600052603260045260246000fd5b7f4e487b7100000000000000000000000000000000000000000000000000000000600052601160045260246000fd5b60006139b782612f8a565b91507fffffffffffffffffffffffffffffffffffffffffffffffffffffffffffffffff8214156139ea576139e961397d565b5b600182019050919050565b7f455243373231456e756d657261626c653a20676c6f62616c20696e646578206f60008201527f7574206f6620626f756e64730000000000000000000000000000000000000000602082015250565b6000613a51602c83612eda565b9150613a5c826139f5565b604082019050919050565b60006020820190508181036000830152613a8081613a44565b9050919050565b7f4552433732313a206f776e657220717565727920666f72206e6f6e657869737460008201527f656e7420746f6b656e0000000000000000000000000000000000000000000000602082015250565b6000613ae3602983612eda565b9150613aee82613a87565b604082019050919050565b60006020820190508181036000830152613b1281613ad6565b9050919050565b7f4552433732313a2062616c616e636520717565727920666f7220746865207a6560008201527f726f206164647265737300000000000000000000000000000000000000000000602082015250565b6000613b75602a83612eda565b9150613b8082613b19565b604082019050919050565b60006020820190508181036000830152613ba481613b68565b9050919050565b6000613bb682612f8a565b9150613bc183612f8a565b9250827fffffffffffffffffffffffffffffffffffffffffffffffffffffffffffffffff03821115613bf657613bf561397d565b5b828201905092915050565b6000613c0c82612f8a565b9150613c1783612f8a565b9250817fffffffffffffffffffffffffffffffffffffffffffffffffffffffffffffffff0483118215151615613c5057613c4f61397d565b5b828202905092915050565b7f4552433732314d657461646174613a2055524920717565727920666f72206e6f60008201527f6e6578697374656e7420746f6b656e0000000000000000000000000000000000602082015250565b6000613cb7602f83612eda565b9150613cc282613c5b565b604082019050919050565b60006020820190508181036000830152613ce681613caa565b9050919050565b600081905092915050565b6000613d0382612ecf565b613d0d8185613ced565b9350613d1d818560208601612eeb565b80840191505092915050565b60008190508160005260206000209050919050565b60008154613d4b816135fc565b613d558186613ced565b94506001821660008114613d705760018114613d8157613db4565b60ff19831686528186019350613db4565b613d8a85613d29565b60005b83811015613dac57815481890152600182019150602081019050613d8d565b838801955050505b50505092915050565b6000613dc98286613cf8565b9150613dd58285613cf8565b9150613de18284613d3e565b9150819050949350505050565b7f4f776e61626c653a206e6577206f776e657220697320746865207a65726f206160008201527f6464726573730000000000000000000000000000000000000000000000000000602082015250565b6000613e4a602683612eda565b9150613e5582613dee565b604082019050919050565b60006020820190508181036000830152613e7981613e3d565b9050919050565b7f4552433732313a206f70657261746f7220717565727920666f72206e6f6e657860008201527f697374656e7420746f6b656e0000000000000000000000000000000000000000602082015250565b6000613edc602c83612eda565b9150613ee782613e80565b604082019050919050565b60006020820190508181036000830152613f0b81613ecf565b9050919050565b7f4552433732313a207472616e736665722066726f6d20696e636f72726563742060008201527f6f776e6572000000000000000000000000000000000000000000000000000000602082015250565b6000613f6e602583612eda565b9150613f7982613f12565b604082019050919050565b60006020820190508181036000830152613f9d81613f61565b9050919050565b7f4552433732313a207472616e7366657220746f20746865207a65726f2061646460008201527f7265737300000000000000000000000000000000000000000000000000000000602082015250565b6000614000602483612eda565b915061400b82613fa4565b604082019050919050565b6000602082019050818103600083015261402f81613ff3565b9050919050565b600061404182612f8a565b915061404c83612f8a565b92508282101561405f5761405e61397d565b5b828203905092915050565b7f4552433732313a20617070726f766520746f2063616c6c657200000000000000600082015250565b60006140a0601983612eda565b91506140ab8261406a565b602082019050919050565b600060208201905081810360008301526140cf81614093565b9050919050565b7f4552433732313a207472616e7366657220746f206e6f6e20455243373231526560008201527f63656976657220696d706c656d656e7465720000000000000000000000000000602082015250565b6000614132603283612eda565b915061413d826140d6565b604082019050919050565b6000602082019050818103600083015261416181614125565b9050919050565b7f4e487b7100000000000000000000000000000000000000000000000000000000600052601260045260246000fd5b60006141a282612f8a565b91506141ad83612f8a565b9250826141bd576141bc614168565b5b828204905092915050565b60006141d382612f8a565b91506141de83612f8a565b9250826141ee576141ed614168565b5b828206905092915050565b600081519050919050565b600082825260208201905092915050565b6000614220826141f9565b61422a8185614204565b935061423a818560208601612eeb565b61424381612f1e565b840191505092915050565b6000608082019050614263600083018761301f565b614270602083018661301f565b61427d60408301856130b5565b818103606083015261428f8184614215565b905095945050505050565b6000815190506142a981612de7565b92915050565b6000602082840312156142c5576142c4612db1565b5b60006142d38482850161429a565b91505092915050565b7f4e487b7100000000000000000000000000000000000000000000000000000000600052603160045260246000fd5b7f4552433732313a206d696e7420746f20746865207a65726f2061646472657373600082015250565b6000614341602083612eda565b915061434c8261430b565b602082019050919050565b6000602082019050818103600083015261437081614334565b9050919050565b7f4552433732313a20746f6b656e20616c7265616479206d696e74656400000000600082015250565b60006143ad601c83612eda565b91506143b882614377565b602082019050919050565b600060208201905081810360008301526143dc816143a0565b905091905056fea26469706673582212203b3cc4ae6b28b8d4acfef1a491aee327c7d6c1a3fb2cd4d67e766ec726ec94fd64736f6c63430008090033697066733a2f2f626166796265696832366e6671623735796f766b74367478686a7370666d61626f6e786763743771726965667a616870687372706e7a76686168612f",
  "linkReferences": {},
  "deployedLinkReferences": {}
}